:020000040800F2
:10000000800B0020D50000085D500008AD3A0008C4
:1000100000000000000000000000000000000000E0
:100020000000000000000000000000008D520008E9
:100030000000000000000000D95000088F520008A6
:10004000E7000008E7000008E7000008E7000008F4
:10005000E7000008E7000008E7000008E7000008E4
:10006000E7000008B1030008C1030008D10300083D
:10007000E7000008E7000008815E0008E7000008CC
:10008000E7000008E7000008E700000800000000A3
:10009000E7000008E7000008E7000008F13A000860
:1000A000193B0008E7000008E7000008615E00084F
:1000B000715E0008E7000008E7000008E70000089C
:1000C0000348854600F090F800480047AD6A0008F4
:1000D000800B00200448804704480047FEE7FEE705
:1000E000FEE7FEE7FEE7FEE769530008C1000008EF
:1000F00030B50B46014600202022012409E00D46C0
:10010000D5409D4205D31D469540491B2546954047
:1001100040191546521E002DF1DC30BD70B500248B
:100120002546002801DA01244042002901DA012590
:100130004942FFF7DDFFAC4200D04042002C00D026
:10014000494270BDF0B51FB40646002082B0054696
:100150004024019100901BE0019922460F46304651
:1001600000F030F8049A059B801A994110D310468C
:100170001946224600F016F8361A8F41019722469A
:1001800001200021009F00F00DF838184D4100902B
:100190002046641E0028DFDC019B00982946324679
:1001A00007B0F0BD10B5202A04DB0146203A91408B
:1001B000002010BD914020239C1A0346E3401943C0
:1001C000904010BD10B5202A04DB0846203AD040EC
:1001D000002110BD0B46D340D0402024A21A9140EC
:1001E0000843194610BD0000064C0125064E05E0E7
:1001F000E36807CC2B430C3C98471034B442F7D348
:10020000FFF762FF347800085478000870B505469F
:10021000AC6AA06D50210840002835D1A06D0121A5
:1002200049020843A0652068C0680321890208408C
:10023000002825D1206A002822D1206800680821E2
:10024000084008281CD120688068042108408008E4
:1002500000280DD1206840680C218843216848603F
:10026000A06DFF210131884301210843A06507E00B
:10027000A06D20210843A065E06D01210843E065E1
:10028000204600F065F903E0206D416B2846884761
:1002900070BD70B50546AC6AA06D40210843A065ED
:1002A000E06D04210843E065204600F05EF970BD72
:1002B00070B50446A56A284600F056F970BD0000E6
:1002C00038B50446074908480068FFF711FF604346
:1002D000009002E00098401E009000980028F9D19C
:1002E00038BD000040420F00AC00002070B504464D
:1002F0000025206880688007800F012807D12068CA
:100300000068C007C00F002801D0012000E00020D5
:10031000002839D1206880681C490840002801D194
:10032000012000E00020002809D1A06D1021084321
:10033000A065E06D01210843E065012070BD2068E3
:10034000806801210843216888600120FFF7B8FF19
:1003500000F0DAFE05460EE000F0D6FE401B0A284B
:1003600009D9A06D10210843A065E06D0121084363
:10037000E0650120E2E720680068C007C00F0121A6
:10038000484048400028E7D00020D7E71700008009
:1003900010B500200349088008220349034800F0F3
:1003A00051FA10BD5A000020B00000207003002058
:1003B00010B5024800F000FB10BD0000D003002083
:1003C00010B5024800F0F8FA10BD000088060020C1
:1003D00010B5034800F0F0FA024800F0EDFA10BD45
:1003E00008070020C806002010B504686360846810
:1003F000102C04D10468A2600468E16003E0046882
:10040000A1600468E26010BD70B504460D4600BFEF
:100410005420005D012801D1022070BD012154202B
:10042000015500BF2068806804210840800800282A
:100430000AD0A06D20210843A06500BF00215420F0
:10044000015500BF0120E8E73C496868884238D080
:100450002068806A29684903490B0843216888623B
:1004600028684003400B364908400121890488422E
:1004700008D13448806849010843324988600A201D
:10048000FFF71EFF28684003400B2F490840012159
:100490004904884205D12B4880684901084329490D
:1004A000886028684003400B28490840012109045E
:1004B00088423BD12348806809020843214988606B
:1004C00034E02068806A29684903490B8843216821
:1004D000886228684003400B1949084001218904BB
:1004E000884205D1174880684901884315498860CA
:1004F00028684003400B1449084001214904884200
:1005000005D110488068490188430E4988602868F1
:100510004003400B0D49084001210904884205D1E0
:1005200008488068090288430649886000BF0021A6
:100530005420015500BF00206FE7000001100000AB
:100540000000044800270140000002440000014070
:10055000034A0168914202D10121024A1180704789
:10056000002401405A0000207047704710B504462F
:10057000002C01D1012010BDA06D002806D1E0653E
:10058000002154200155204600F00AF9A06D1021E9
:100590000840002806D120688068042108408008AF
:1005A00000280AD0A06D10210843A06500BF0021DB
:1005B0005420015500BF0120DDE7A06DFF2101316E
:1005C000884302210843A065206880688007800F67
:1005D000012807D120680068C007C00F002801D09B
:1005E000012000E0002000283AD100BF0321890744
:1005F0006068884207D049426068884203D0490059
:10060000606888420CD120680069800080082168F9
:10061000086120680069616808432168086112E088
:100620002068006980008008216808615A48806855
:100630000F218904884358498860084680686168AA
:1006400008435549886000BF2068C0681821884366
:100650002168C8602068C068A16808432168C86034
:100660004D4880680121490688434B498860084607
:100670008068218F49060843474988602068806860
:10068000012109070840002804D120688068084338
:10069000216888602068C068404908402168C860B7
:1006A0002169E068022901D1042100E0002108430A
:1006B000216A49030843216B49000843616B0843E1
:1006C000A16989030843E169C90308432168C9682E
:1006D00008432168C860FF21C231A06A884207D060
:1006E000E16AA06A08432168C96808432168C860B4
:1006F000606A012812D1206A002807D12068C068EA
:100700000121090408432168C86007E0A06D202189
:100710000843A065E06D01210843E065206C0128D5
:1007200017D120680069FF2189008843216808618A
:10073000616CA06C0843E16C0843216809690843B7
:100740002168086120680069012108432168086167
:100750000BE020680069C007C00F002805D02068A2
:100760000069400840002168086120684069C008AD
:10077000C0002168486120684069E16B0843216836
:1007800048610020E065A06D0221884301210843F3
:10079000A0650020EFE60000002701401902FEFFDF
:1007A00010B586B004461C492068884231D11B48E8
:1007B000406B49150843194948637F200190032085
:1007C00002900020039001A90520000700F090FB93
:1007D00013481449086000204860002111488160D6
:1007E000C1608021016149004161C900816100212E
:1007F000C16101214903016200F06CFA002803D0B5
:10080000772109A005F044FB00BF064820658462FB
:1008100000BF06B010BD00000024014000100240DF
:1008200008000240D00300202E2E2F5372632F7336
:10083000746D33326C3078785F68616C5F6D7370A3
:100840002E630000F8B504460D46164600272068C2
:100850008068042108408008002848D100BF542047
:10086000005D012801D10220F8BD0121542001556D
:1008700000BFE069012803D02046FFF737FD074697
:10088000002F35D1A06D1B490840FF2101310843DD
:10089000A0650020E06500BF00215420015500BF85
:1008A0001548216DC8621548216D08631448216DF3
:1008B00048631C20216808602068406810210843B4
:1008C000216848602068C068012108432168C86029
:1008D00022681146403133462A46206D00F0C2FAA4
:1008E00020688068042108432168886000E00227AE
:1008F0003846B9E7FEF1FFFF0D020008B10200081B
:100900009302000870B5044600252520005D0228EA
:1009100003D00420E063012549E0206800680E212F
:10092000884321680860206800684008400021680A
:10093000086020492068884201D1012026E01D4935
:1009400014312068884201D110201FE01949283154
:100950002068884201D1801518E016493C31206892
:10096000884201D1801411E0124950312068884238
:1009700002D10120000409E00E4964312068884258
:1009800002D10120000501E00120000609490839D3
:10099000486001212520015500BF00212420015578
:1009A00000BFA06B002802D02046A16B88472846D4
:1009B00070BD00000800024010B50446C44800683D
:1009C000C34A08322168914201D1082127E0C04A78
:1009D0001C322168914201D1802120E0BC4A303292
:1009E0002168914201D1C91419E0B94A4432216801
:1009F000914202D10121C90311E0B54A5832216860
:100A0000914202D10121C90409E0B14A6C32216846
:100A1000914202D10121C90501E00121C906084026
:100A200000284DD02068006808210840002847D0E1
:100A300020680068884321680860A549083120685B
:100A4000884201D1082027E0A1491C312068884252
:100A500001D1802020E09E4930312068884201D1B8
:100A6000C01419E09A4944312068884202D101201B
:100A7000C00311E0964958312068884202D1012014
:100A8000C00409E092496C312068884202D10120FB
:100A9000C00501E00120C0068D494860E06B0121DE
:100AA0000843E06304212520015500BF00212420D4
:100AB000015500BF606B002802D02046616B88475B
:100AC00083480068824A08322168914201D104219A
:100AD00027E07F4A1C322168914201D1402120E069
:100AE0007B4A30322168914201D1091519E0784AD8
:100AF00044322168914202D10121890311E0744AF4
:100B000058322168914202D10121890409E0704ADA
:100B10006C322168914202D10121890501E0012155
:100B20008906084000284BD020680068042108404E
:100B3000002845D02068006820210840002805D101
:100B400020680068042188432168086060490831F2
:100B50002068884201D1042027E05D491C312068CB
:100B6000884201D1402020E0594930312068884234
:100B700001D1001519E0564944312068884202D15C
:100B80000120800311E0524958312068884202D187
:100B90000120800409E04E496C312068884202D16E
:100BA0000120800501E001208006494948600521B7
:100BB00025200155206B002802D02046216B884754
:100BC00043480068424A08322168914201D102211B
:100BD00027E03F4A1C322168914201D1202120E0C8
:100BE0003B4A30322168914201D1491519E0384A17
:100BF00044322168914202D10121490311E0344A73
:100C000058322168914202D10121490409E0304A59
:100C10006C322168914202D10121490501E0012194
:100C200049060840002852D0206800680221084088
:100C300000284CD02068006820210840002805D1F9
:100C40002068006802218843216808602049083133
:100C50002068884201D1022027E01D491C3120680C
:100C6000884201D1202020E0194930312068884293
:100C700001D1401519E0164944312068884202D15B
:100C80000120400311E0124958312068884202D106
:100C90000120400409E00E496C312068884202D1ED
:100CA0000120400501E00120400609494860E06B51
:100CB000E06301212520015500BF002124200155BA
:100CC00000BFE06A002802D02046E16A884710BDD4
:100CD0000000024001460022002901D10120704796
:100CE0002520405C002802D1002324204354022305
:100CF000252043540868026858480240CB68886839
:100D000018430B6918434B6918438B691843CB6927
:100D100018430B6A1843024308680260504B086886
:100D200098420FD14E487830806A000900014C4B40
:100D3000783398621846806A4B681843484B78337A
:100D4000986285E0464B14330868984210D14448B5
:100D50007830806AF0239843414B78339862184684
:100D6000806A4B681B0118433D4B783398626FE0F3
:100D70003B4B28330868984211D139487830806A53
:100D80000F231B029843364B783398621846806ACB
:100D90004B681B021843324B7833986258E0304B53
:100DA0003C330868984211D12D487830806A0F236F
:100DB0001B0398432A4B783398621846806A4B6825
:100DC0001B031843264B7833986241E0244B503381
:100DD0000868984211D122487830806A0F231B049A
:100DE00098431F4B783398621846806A8B881B049F
:100DF00018431B4B783398622AE0194B6433086818
:100E0000984211D116487830806A0F231B05984309
:100E1000134B783398621846806A8B881B051843F9
:100E20000F4B7833986213E00D4B78330868984283
:100E30000ED1806A0F231B069843094B78339862C2
:100E40001846806A0B791B061843054B7833986265
:100E5000012325204354002041E700000FC0FFFF7D
:100E600008000240F8B504460D4616461F4600BF6E
:100E70002420005D012801D10220F8BD0121242099
:100E8000015500BF02212520015520680068400857
:100E90004000216808603B46324629462046FFF75D
:100EA000A3FA2068006802210843216808602068CE
:100EB0000068042108432168086020680068082150
:100EC0000843216808602068006801210843216800
:100ED00008600020D1E731B5002400F015F9044680
:100EE00000BF00F011F9001B00998842F9D338BD0A
:100EF00070B50346002200240020DFE00126964062
:100F00000D6835402C46002C77D04D68022D02D05C
:100F10004D68122D15D1D508AE001D462035A859B3
:100F20005507EE0E0F25B5400646AE433046560730
:100F3000F60E0D69B5402843D508AD001E46203693
:100F400070514D68012D08D04D68022D05D04D68B7
:100F5000112D02D04D68122D18D198685600032526
:100F6000B5400646AE4330465600CD68B5402843EE
:100F700098605868012595400646AE4330461026D5
:100F80004D6835402D099540284358601868560033
:100F90000325B5400646AE4330460D79AD07AD0F8B
:100FA0005600B54028431860D86856000325B54060
:100FB0000646AE43304656008D68B5402843D8609B
:100FC000012636074D683540B54276D13E4D6D6BF2
:100FD000012635433C4E75633C4D9608B600A85932
:100FE00095072E0F0F25B5400646AE433046052522
:100FF0002D07AB4202D100251AE05EE0344DAB4232
:1010000001D1012514E0334DAB4201D102250FE09F
:10101000314DAB4201D103250AE0304DAB4201D145
:10102000042505E02E4DAB4201D1052500E0062543
:101030009607360FB5402843244D9608B600A851B0
:10104000284D28680546A5432846012636044D68E4
:101050003540B54202D1054625432846214D28603A
:1010600068680546A5432846012676044D68354044
:10107000B54202D10546254328461A4D6860A86846
:101080000546A5432846012636054D683540B5423C
:1010900002D1054625432846124DA860E86805465A
:1010A000A5432846012676054D683540B54202D154
:1010B0000546254328460B4DE860521C0D68D54077
:1010C000002D00D01AE770BD00100240080001405A
:1010D0000004005000080050000C005000100050A8
:1010E000001C005000040140024613690B40002B15
:1010F00001D0012000E000207047002A01D081616A
:1011000000E08162704700000148006870470000FD
:10111000A800002002464120805C20282FD100BF7B
:101120004020805C012801D102207047012340202B
:10113000835400BF24234120835410680068400872
:101140004000136818601068006801231B0398436F
:101150001368186010680068084313681860106806
:10116000006801231843136818602023412083542A
:1011700000BF00234020835400BF0020D5E7022099
:10118000D3E710B502460B4600214120805C2028A1
:101190002ED100BF4020805C012801D1022010BD6B
:1011A00001244020845400BF24244120845410682A
:1011B00000684008400014682060106801680F242F
:1011C00024020846A043014618020143106801604A
:1011D0001068006801242043146820602024412006
:1011E000845400BF00244020845400BF0020D6E770
:1011F0000220D4E77047704770B5044620688569BF
:1012000020680668FF200130284000280AD080208E
:101210003040002806D0606C012108436064080259
:101220002168C86101208002284000280AD080205F
:101230003040002806D0606C082108436064C80173
:101240002168C86101204002284000280AD080207F
:101250003040002806D0606C022108436064080218
:101260002168C861606C0B210840002803D0616CC4
:10127000204602F08FFD70BD70B504462068856978
:1012800020680668606B002804D032462946204654
:10129000636B984770BD704710B50446002C01D1B0
:1012A000012010BD4120005D002805D10021402013
:1012B0000155204600F010FA2421412001552068F4
:1012C000006840084000216808600F210906606836
:1012D000884321680861206880680121C903884328
:1012E00021688860E068012806D10121C903A0684F
:1012F00008432168886005E021218902A06808432D
:1013000021688860E068022802D180022168486074
:101310002068406814490843216848602068C06814
:101320000121C90388432168C860616920690843B5
:10133000A169090208432168C860216AE06908437D
:10134000216808602068006801210843216808605E
:1013500000206064202141200155002020630021ED
:101360004220015500209CE70080000270470000E9
:10137000034A0168914202D10121024A118070475B
:10138000005800405E00002070470000FEB5044693
:101390000F4615461E46002001904120005D202882
:1013A00043D1206880690121C9030840C00B00288F
:1013B00001D00220FEBD00BF4020005D012801D108
:1013C0000220F7E701214020015500BF22214120E2
:1013D0000155102142200155002060646562668538
:1013E0001348E06213486063608DFF2804D9FF2032
:1013F00020850805019004E0608D208501204006CD
:1014000001900D480090208DC2B239462046019BC4
:1014100003F0EEF900BF00214020015500BF02217A
:10142000204602F0EBFB0020C4E70220C2E70000E8
:101430000000FFFFB143000800240080FFB581B029
:10144000044616461F4600254120005D20287BD11A
:1014500000BF4020005D012802D1022005B0F0BD90
:1014600001214020015500BFFFF74EFE054619231C
:101470000122D1032046009503F0D6F9002801D0BF
:101480000320EBE721214120015510214220015585
:1014900000206064666267856063608DFF280BD9F9
:1014A000FF20208543480090208DC2B20B052046C6
:1014B000029903F09DF90BE0608D20853D48009076
:1014C000208DC2B201235B062046029903F090F9F9
:1014D00047E02A4620460A9903F0FCF9002806D086
:1014E000606C042801D10120B8E70320B6E7616AE7
:1014F000481C6062087821688862608D401E6085A3
:10150000208D401E2085208D00282AD1608D002846
:1015100027D000950022802120460A9B03F084F901
:10152000002801D0032099E7608DFF280DD9FF2006
:10153000208500200090208DC2B201231B0620468A
:10154000029903F055F90CE031E0608D2085002010
:101550000090208DC2B201235B062046029903F061
:1015600047F9608D0028B4D12A4620460A9903F035
:1015700084F9002806D0606C042801D101206DE7B1
:1015800003206BE720202168C861206840680A4971
:101590000840216848602021412001550021422057
:1015A000015500BF4020015500BF002056E7022032
:1015B00054E700000020008000E800FE034A0168B4
:1015C000914202D10121024A11807047005400402B
:1015D0005C00002070470000FFB585B004460F4650
:1015E0000F9E0E9D0020049003904120005D202856
:1015F0006AD1002D01D0002E02D1012009B0F0BD2A
:10160000206880690121C9030840C00B002801D06F
:101610000220F3E700BF4020005D012801D1022035
:10162000ECE701214020015500BFFFF76DFD04905C
:1016300022214120015540214220015500206064B3
:10164000656266852148E06221486063608DFF28FD
:1016500004D9FF2020858804039004E0608D208554
:101660000120400603901921049800910190394609
:101670002046089B079A02F071FF002810D0606C8A
:10168000042806D100BF00214020015500BF0120E1
:10169000B4E700BF00214020015500BF0320ADE7A3
:1016A0000C480090208DC2B239462046039B03F0BF
:1016B0009FF800BF00214020015500BF02212046B5
:1016C00002F09CFA002099E7022097E70000FFFF54
:1016D000B14300080024008010B586B004462349B9
:1016E000206888421DD1C020019012200290012064
:1016F0000390032004900120059001A91C48FFF7E6
:10170000F7FB1C48806B0121490508431949886390
:1017100000221146172000F08BF8172000F07CF80B
:1017200021E01549206888421DD1032080020190E4
:1017300012200290012003900320049006200590BF
:1017400001A90B48FFF7D4FB0A48806B01218905EA
:1017500008430849886300221146182000F068F801
:10176000182000F059F806B010BD000000540040E9
:1017700000040050001002400058004070477047BD
:1017800002480068401C014908607047A80000201A
:1017900010B506480068402108430449086000204D
:1017A00000F006F800F018F8002010BD00200240FC
:1017B00070B504467D21C90006480068FEF798FC14
:1017C000054601F009FB00222146501E00F030F8CA
:1017D000002070BDAC00002010B50E48406B012108
:1017E00008430C4948630846806B090408430949CB
:1017F000886300221146501F00F01AF8002211469B
:10180000901E00F015F800221146501E00F010F84E
:1018100010BD00000010024000BFC206D20E012120
:101820009140024A116000BF7047000000E100E0F3
:1018300070B504460D4616462946204603F010FCB6
:1018400070BD0000F0B585B005460026002003906D
:1018500002900024002701900090102D7ED008DC1B
:10186000012D7CD0022D7BD0042D7AD0082D79D18A
:101870003BE1202D0AD0402D51D0E81FF938002837
:1018800071D007210902401AF1D100E000BFC6481B
:101890000669006903210904084004460120000488
:1018A000844206D1C0113040002802D0601002905E
:1018B00034E001204004844206D102203040002858
:1018C00002D0BA48029029E003200004844223D1C8
:1018D000B5484038006801214904084000281BD061
:1018E000B1484038006821010840039001210905F2
:1018F0000398401A09D0401A04D0401A08D1AC48C5
:10190000029008E0AB48029005E0AB48029002E08C
:10191000AA48029000BF01E0002002903FE1A248E7
:10192000C0680121890608400446002C42D19E4827
:10193000403800684910084000283BD09A48403899
:10194000C0680F2189040840074697484038C0689E
:101950000321890508400190B80C05E0EAE03AE06F
:1019600064E08FE01AE1F4E095490F5C0198800D86
:10197000401C01908C484038C0680121090408408F
:1019800000280CD188484038006810210840002801
:1019900002D08C48009004E08B48009001E08B4816
:1019A000009000987843009001990098FEF7A0FB02
:1019B00002900FE001208006844209D17A48403825
:1019C000806802210840002802D08148029001E08E
:1019D00000200290E3E07448C0688407A40F002C44
:1019E00003D100F061FB02901FE0022C09D16E4888
:1019F0004038006804210840002802D07248029054
:101A000013E0012C03D100F061FB02900DE0032CE8
:101A100009D165480069012149020840002802D027
:101A20008801029001E000200290B8E05E48C068A2
:101A30000C2108400446002C03D100F023FB029047
:101A40001FE0082C09D1584840380068042108409C
:101A5000002802D05C48029013E0042C03D100F06F
:101A600035FB02900DE00C2C09D14F480069012193
:101A700049020840002802D08801029001E00020BD
:101A800002908CE04848C06803218902084004465F
:101A9000002C03D100F0F6FA029025E00120C002EC
:101AA000844209D140484038006804210840002899
:101AB00002D04548029017E001208002844203D101
:101AC00000F004FB02900FE003208002844209D161
:101AD00035480069012149020840002802D08801E8
:101AE000029001E00020029059E02F48C0680321D5
:101AF000090308400446002C03D100F0C3FA029009
:101B000017E001204003844209D12748403800688B
:101B100004210840002802D02B48029009E001204F
:101B20000003844203D100F0D1FA029001E00020CA
:101B3000029034E01C484038806B01218905084040
:101B4000884203D100F09EFA029001E0002002904A
:101B500025E01548C0680321090408400446002C0C
:101B600003D100F08FFA029017E001204004844274
:101B700009D10D484038006804210840002802D0EF
:101B80001148029009E001200004844203D100F0D2
:101B90009DFA029001E00020029000E000BF00BF2B
:101BA000029805B0F0BD000040100240889000008F
:101BB000D0121300A0252600404B4C0080969800C0
:101BC0002878000800093D000024F400002D3101B0
:101BD000006CDC02F8B504460026002520212068B0
:101BE0000840202804D089012068084088427DD11F
:101BF000202120680840202800D100BF0121C9020F
:101C000020680840884200D100BF00279948806BB7
:101C1000012109070840002805D19648806B084338
:101C200094498863012794480068FF2101310840E6
:101C3000002816D19048006808438F490860FFF7D4
:101C400063FA064606E0FFF75FFA801B642801D9B5
:101C50000320F8BD88480068FF21013108400028B2
:101C6000F1D08448006803210905084005466068F2
:101C70000840A84203D1A0680840A8420ED0032122
:101C8000090460680840884208D17A480068012148
:101C900049040840002801D00120DAE775484030A7
:101CA00000690321090408400546002D49D06068F9
:101CB0000840A84204D020212068084020280BD0EA
:101CC00003210904A0680840A8423AD00121C902B2
:101CD00020680840884234D16648403000690321BA
:101CE0000904884305466348403000E052E000693B
:101CF0000121C90408435F49403108610846006971
:101D00000121C90488435B494031086108460561E7
:101D100080152840002814D0FFF7F6F9064607E0A2
:101D2000FFF7F2F9801B5549884201D9032090E75B
:101D3000504840300069012149020840400A00280B
:101D4000EED000BF00BF032109046068084088424C
:101D50000AD14848006809018843032212056168D6
:101D6000114008434349086000BF424840300069C1
:101D7000032212046168114008433E494031086162
:101D800000BF012F05D13B48806B89058843394945
:101D9000886300BF2078C007C00F002809D03548ED
:101DA0004030C06880088000E16808433149403114
:101DB000C860022120680840022809D12D4840301F
:101DC000C0680C218843216908432A494031C86012
:101DD00004212068084004280AD126484030C06801
:101DE0000321890288436169084322494031C86060
:101DF00008212068084008280AD11E484030C068E1
:101E0000032109038843A16908431A494031C86086
:101E1000FF2101312068084088420AD1154840302E
:101E2000C068032109048843E1690843114940312E
:101E3000C860402120680840402809D10D48403042
:101E4000C06809058843616A08430A494031C8608F
:101E500080212068084080280AD106484030C068A8
:101E6000032189048843216A084302494031C8603C
:101E70000020EEE6001002400070004088130000D1
:101E800070B504460D46002676480068C007C00FAE
:101E9000A8420ED2734800684008400028437149A8
:101EA000086008460068C007C00FA84201D00120A2
:101EB00070BD022120680840022807D16A48C06826
:101EC000F0218843A16808436749C8602078C007AB
:101ED000C00F00284CD06068022809D16248006811
:101EE000012149040840400C002824D10120DFE7EB
:101EF0006068032809D15C48006801214906084050
:101F0000400E002817D10120D2E76068012808D1CF
:101F10005548006804210840800800280BD10120A2
:101F2000C6E751480068012149020840400A0028DC
:101F300001D10120BCE74C48C0688008800061687E
:101F400008434949C860FFF7DFF806466068022881
:101F50000FD107E0FFF7D8F8801B4449884201D928
:101F60000320A5E74048C0680C2108400828F1D1AB
:101F700034E0606803280FD107E0FFF7C5F8801B45
:101F80003A49884201D9032092E73748C0680C21BA
:101F900008400C28F1D121E0606801280FD107E04A
:101FA000FFF7B2F8801B3149884201D903207FE74F
:101FB0002D48C0680C2108400428F1D10EE007E04C
:101FC000FFF7A2F8801B2949884201D903206FE757
:101FD0002548C0680C2108400028F1D1214800683C
:101FE000C007C00FA8420ED91E4800684008400034
:101FF00028431C49086008460068C007C00FA84273
:1020000001D0012054E7042120680840042808D1A9
:102010001548C068072109028843E168084312494E
:10202000C860082120680840082809D10E48C06807
:102030000721C90288432169C90008430A49C860C9
:1020400000F044F80849C968F02211400909084A1B
:10205000515CC840074908600020FFF7A9FB002039
:1020600026E7000000200240001002408813000014
:1020700010780008AC00002001480068704700009C
:10208000AC00002000B5FFF7F7FF0549C96807223B
:1020900012021140090A034A515CC84000BD000009
:1020A000001002402078000800B5FFF7E5FF054961
:1020B000C9680722D2021140C90A034A515CC840CC
:1020C00000BD00000010024020780008FEB5002589
:1020D0000026002700240020019000902F48C568AA
:1020E0000C202840002847D0042804D008280ED00F
:1020F0000C2840D10EE02948006810210840002833
:1021000002D02748009001E02648009042E026488F
:1021100000903FE00F2080042840800C23490E5C93
:10212000032080052840800D471C1C48C068012101
:1021300009040840002807D01B4971430846394666
:10214000FDF7D6FF044614E014480068102108404B
:10215000002807D01249714308463946FDF7C8FFE9
:10216000044606E00F49714308463946FDF7C0FFB3
:10217000044600940EE000BF084840680721490368
:102180000840400B01900198401C01218140C80388
:10219000009000BF00BF0098FEBD0000001002408C
:1021A00000093D000024F400002D310128780008CA
:1021B000F8B5044600252078C007C00F00287DD060
:1021C000FE48C0680C21084008280BD0FB48C068B6
:1021D00008400C2813D1F948C068012109040840BF
:1021E00088420CD1F5480068012149040840400CA0
:1021F000002863D06068002860D10120F8BD00BFCE
:10220000012109046068884205D1EC480068084350
:10221000EA49086027E005210904606888420ED178
:10222000E6480068012189040843E449086008463B
:102230000068012109040843E049086013E0DF4811
:102240000068012109048843DC49086008460068E9
:10225000012109040840009000BFD84800688900A7
:102260008843D649086000BF6068002813D0FEF795
:102270004BFF054606E0FEF747FF401B642801D9E7
:102280000320BBE7CD480068012149040840400C09
:102290000028F0D012E0FEF737FF054606E0FEF713
:1022A00033FF401B642801D90320A7E7C348006817
:1022B000012149040840400C0028F0D10221206887
:1022C0000840022868D1BD48C0680C210840042895
:1022D0000BD0BA48C06808400C281DD1B748C06868
:1022E000012109040840002816D1B44800680421DF
:1022F00008408008002804D0E068012801D00120AF
:102300007CE7AE4840681F21090288432169090221
:102310000843AA4948603FE0E068002824D0A74865
:10232000006809218843E1680843A4490860FEF772
:10233000EBFE054606E0FEF7E7FE401B022801D94A
:1023400003205BE79D4800680421084080080028BE
:10235000F1D09A4840681F21090288432169090287
:1023600008439649486017E09448006840084000D8
:1023700092490860FEF7C8FE054606E0FEF7C4FE77
:10238000401B022801D9032038E78C48006804214B
:10239000084080080028F1D110212068084010284A
:1023A00060D18648C0680C21084000285BD1834872
:1023B0000068012149020840400A002804D0E06971
:1023C000002801D1012019E77C48616A4068072292
:1023D00052031040814219D9606A02F07FFE002842
:1023E00001D001200AE77548406807214903884366
:1023F000616A084371494860084640680002000A63
:10240000218C090608436D49486018E06B48406814
:10241000072149038843616A0843684948600846C0
:1024200040680002000A218C09060843634948609D
:10243000606A02F053FE002801D00120DEE6606AE7
:10244000400B401C01218140C8035C49C968F0224F
:10245000114009095A4A515CC8405A490860002095
:10246000FFF7A6F949E0E06900282CD0534800683E
:10247000FF210131084351490860FEF745FE05463A
:1024800006E0FEF741FE401B022801D90320B5E615
:102490004A480068012149020840400A0028F0D05B
:1024A00046484068072149038843616A0843434915
:1024B0004860084640680002000A218C090608436B
:1024C0003E49486019E03D480068FF2101318843DA
:1024D0003A490860FEF718FE054606E0FEF714FECE
:1024E000401B022801D9032088E6344800680121F6
:1024F00049020840400A0028F0D10821206808401D
:10250000082839D1606900281BD02C484030006968
:1025100001210843294940310861FEF7F5FD0546D0
:1025200006E0FEF7F1FD401B022801D9032065E615
:102530002248403000690221084040080028F0D0BD
:102540001AE01E4840300069400840001B494031F5
:102550000861FEF7D9FD054606E0FEF7D5FD401BF4
:10256000022801D9032049E61448403000690221BD
:10257000084040080028F0D10421206808400428C1
:1025800077D100260D48806B89060840002805D1C8
:102590000A48806B08430949886301260A48006895
:1025A000FF210131084000281ED107480068084378
:1025B00005490860FEF7A8FD05460EE00010024040
:1025C00010780008AC00002000700040FEF79CFD71
:1025D000401B642801D9032010E6A6480068FF21AB
:1025E000013108400028F1D000BFFF210131A0686F
:1025F000884205D1A048006908439F49086130E03E
:10260000A06800280DD19C480069FF210131884352
:102610009949086108460069091588439649086187
:102620001FE005210902A06888420DD19248006987
:10263000012189020843904908610846006989150B
:1026400008438D4908610CE08B480069FF21013186
:102650008843894908610846006909158843864905
:10266000086100BFA068002815D0FEF74DFD0546A3
:1026700008E02FE0FEF748FD401B8049884201D961
:102680000320BBE57C480069012149020840400A5B
:102690000028EFD013E0FEF737FD054607E0FEF710
:1026A00033FD401B7549884201D90320A6E57248D5
:1026B0000069012149020840400A0028EFD1012E9B
:1026C00007D16D484038806B310788436A494039EB
:1026D000886300BF202120680840202852D1A069CB
:1026E00000282BD000BF644840388068012108438F
:1026F0006149403988600846406B012108435E49C2
:10270000403948635E48006A0121490308435C4937
:10271000086200BFFEF7F8FC054606E0FEF7F4FC91
:10272000401B022801D9032068E5534840388068DF
:102730000221084040080028F0D023E000BF4E48A6
:1027400040388068400840004B49403988604C4818
:10275000006A0121490388434949086200BFFEF726
:10276000D3FC054606E0FEF7CFFC401B022801D94A
:10277000032043E540484038806802210840400873
:102780000028F0D1A06A002872D03B484038C068C9
:102790000C2108400C2869D0A06A022848D136488C
:1027A00040380068012109068843334940390860F0
:1027B000FEF7AAFC054606E0FEF7A6FC401B022831
:1027C00001D903201AE52C48403800680121490648
:1027D0000840400E0028EFD1216BE06A0843616B8E
:1027E000084325494039C968FD2212049143084332
:1027F00021494039C860084600680121090608439C
:102800001D4940390860FEF77FFC054606E0FEF7EB
:102810007BFC401B022801D90320EFE41648403816
:102820000068012149060840400E0028EFD01FE053
:102830001148403800680121090688430E49403993
:102840000860FEF761FC054606E0FEF75DFC401BF4
:10285000022801D90320D1E407484038006801214B
:1028600049060840400E0028EFD101E00120C5E4F0
:102870000020C3E4007000404010024088130000B4
:1028800000000140FFB581B004460D461646002702
:10289000002C02D1012005B0F0BD6920005D0028A8
:1028A00005D1002168200155204600F0CBFD2421F0
:1028B00069200155206800684008400021680860D0
:1028C000606A002802D0204602F0B1FE204603F0E4
:1028D0005DF8012800D1DEE72068806801218903C6
:1028E000084321688860206880680121C903884303
:1028F000284321688860770504980004074320680E
:10290000006807490840384321680860206800686B
:102910000121084321680860204602F001FFBAE760
:10292000FFFF00FC10B50446002C01D1012010BDB2
:102930005120005D002805D100215020015520467E
:1029400000F038F80221512001552068006840212C
:10295000884321680860A16860680843E16808430B
:10296000216908436169084301225202A1691140AB
:102970000843E1690843216A0843A16A08432168C2
:102980000860A069000C04210840616A08432168BE
:1029900048602168E06A08612068C0699100884346
:1029A0002168C86100206065012151200155002087
:1029B000BDE7000010B586B004460D492068884286
:1029C00014D10C48406B891408430A494863072016
:1029D0004003019002200290002003900320049005
:1029E0000220059001A90448FEF782FA06B010BD46
:1029F000003001400010024000100050F8B50446BD
:102A00000E4615461F465120005D01287BD1002E41
:102A100001D0002D01D10120F8BD00BF5020005D84
:102A2000012801D10220F7E701215020015500BF04
:102A3000122151200155002060652663A586E58698
:102A4000E064A064A063A087E08701214903A06A35
:102A500088420DD100BF2068006888432168086063
:102A6000206800680121490308432168086000BF0D
:102A70000121C903A068884205D120680068491077
:102A80000843216808602068006840210840402809
:102A900004D020680068084321680860E0680028C6
:102AA00032D16068002802D0E08E012808D1216B65
:102AB000481C206308782168C860E08E401EE086CC
:102AC00012E03B4600220221204602F053FB002880
:102AD00001D00320A0E7216B481C206308782168FF
:102AE000C860E08E401EE086E08E0028E9D101211A
:102AF0004903A06A88423AD1206800684910084317
:102B00002168086033E064E06068002802D0E08E4D
:102B1000012809D1206B00882168C860206B801CC7
:102B20002063E08E401EE08613E03B460022022137
:102B3000204602F01FFB002801D003206CE7206B29
:102B400000882168C860206B801C2063E08E401ED6
:102B5000E086E08E0028E8D101214903A06A88427E
:102B600005D12068006849100843216808603B4689
:102B700000220221204602F0FDFA002805D0606DF7
:102B8000202108436065032046E73B46012280215F
:102B9000204602F0EFFA002805D0606D202108439E
:102BA0006065032038E7A068002808D100BF2068CE
:102BB000C068009020688068009000BF00BF0121BD
:102BC0005120015500BF00215020015500BF0020B9
:102BD00022E7022020E70000042806D106490969FF
:102BE00004221143044A116105E0034909690422E2
:102BF0009143014A1161704700E000E010B56C4854
:102C000000886C49884204DA69480088401C684999
:102C10000880694800886749884204DA6648008865
:102C2000401C6549088065480088401C634908804D
:102C30000846008814282FDB0020088060480088A0
:102C4000401C5F49088008460088052824D10020E0
:102C500008805C480088401C5A4908800846008863
:102C60000A2819D100200880401E5749088057487B
:102C700000880121081A5549088008460088002864
:102C800005D0002208215248FEF737FA04E001225D
:102C900008214F48FEF731FA48480088002806D13D
:102CA0004C480068012108434A4908607EE04348D7
:102CB0000088042807D147480068012149020843D9
:102CC0004449086072E03D480088082807D141481F
:102CD00000680121C90208433E49086066E03748A0
:102CE00000880C2862D136480088002806D139486F
:102CF0000068402108433749086057E030480088A1
:102D000001280DD133480068FF21013108433149C2
:102D1000086008460068102108432E49086045E015
:102D200027480088022806D12A480068082108435D
:102D3000284908603AE022480088032836D1214813
:102D40000088002806D12348006802210843214951
:102D500008602BE01B480088042806D11D48006845
:102D6000042108431B49086020E016480088062813
:102D700006D118480068202108431649086015E06C
:102D800010480088072807D11248006801218902ED
:102D900008431049086009E00A480088082805D15E
:102DA0000C480068802108430A49086010BD0000F3
:102DB00096000020F0FF0000980000209C000020FA
:102DC0009E000020A0000020A2000020A4000020FF
:102DD000000400506400002070B504462546681EBB
:102DE0000949884201D901200CE0681E0749486161
:102DF0000321081F02F034F90020044988610720EC
:102E00000861002070BD0000FFFFFF0000E000E04F
:102E100010B5FFF7F3FE10BD024600BF3420805C02
:102E2000012801D10220704701233420835400BFC0
:102E30000223352083541068406870239843136838
:102E40005860106840680B68184313685860106831
:102E500080688023984313689860106880684B6886
:102E600018431368986001233520835400BF002362
:102E70003420835400BF0020D5E7024600BF342031
:102E8000805C012801D10220704701233420835443
:102E900000BF106801653520835400BF0023342033
:102EA000835400BF0020EFE710B50446002C01D189
:102EB000012010BD3520005D002805D100213420FF
:102EC0000155204600F00CF8022135200155211D46
:102ED000206802F07DFA0121352001550020E8E745
:102EE000054A0168914205D10449896B02221143C8
:102EF000024A916370470000000400400010024045
:102F0000F8B504460D46002600BF3420005D0128B8
:102F100001D10220F8BD01213420015500BF02215A
:102F2000352001552068866877213046884306465B
:102F3000FF210902304688430646206886602868DB
:102F400050283ED00CDC202863D004DC002856D06A
:102F5000102868D158E0302860D0402863D144E080
:102F6000602838D070280DD001210903401A02D002
:102F7000401A58D117E020688068C008C000216856
:102F8000886051E0EB686A68A968206802F070FA0E
:102F900020688668772130468843064677200643B6
:102FA0002068866040E0EB686A68A968206802F0E3
:102FB0005FFA2068806801218903084321688860DE
:102FC00032E0EA686968206802F0FBFA5021206864
:102FD00002F05DFA28E0EA686968206802F00CFBFC
:102FE0006021206802F053FA1EE0EA6869682068F0
:102FF00002F0E7FA4021206802F049FA14E00021CB
:10300000206802F044FA0FE01021206802F03FFA35
:103010000AE02021206802F03AFA05E03021206819
:1030200002F035FA00E000BF00BF01213520015554
:1030300000BF00213420015500BF00206AE70000D6
:1030400010B586B004460F492068884218D1182070
:10305000019002200290002003900490022005902D
:1030600001A90948FDF744FF0220019002900020C9
:10307000039004900220059001A90448FDF738FF51
:1030800006B010BD000400400010005000040050C5
:1030900070B504460D46164600BF3420005D012879
:1030A00001D1022070BD01213420015500BF022151
:1030B00035200155002E06D0042E1BD0082E33D00B
:1030C0000C2E62D147E02946206802F0EDF9206815
:1030D000806908210843216888612068806904218B
:1030E00088432168886120688069E968084321680D
:1030F00088614BE02946206802F0F5F92068806974
:103100000121C90208432168886120688069012182
:10311000890288432168886120688069E96809021A
:1031200008432168886131E02946206802F000FAEE
:103130002068C069082108432168C8612068C06907
:10314000042188432168C8612068C069E968084390
:103150002168C8611AE02946206802F00BFA20684D
:10316000C0690121C90208432168C8612068C0699B
:103170000121890288432168C8612068C069E96823
:10318000090208432168C86100E000BF00BF0121B7
:103190003520015500BF00213420015500BF00201B
:1031A00080E710B50446002C01D1012010BD352068
:1031B000005D002805D1002134200155204600F093
:1031C0000CF8022135200155211D206802F000F97C
:1031D0000121352001550020E8E7704770B504460D
:1031E0000D4601222946206802F034F92068006863
:1031F0000121084321680860002070BD70477047B6
:10320000F8B504462068C569206806682807000FDD
:103210000090009800280BD120202840002807D0DB
:1032200020203040002803D0204602F066FBF8BD85
:1032300020688768009800287ED0F807C00F002813
:1032400004D1FF20213030400028F5D0E807C00F1E
:1032500000280BD0FF2001303040002806D001208C
:1032600021680862E06E01210843E06602202840E0
:1032700000280AD0F807C00F002806D002202168D5
:103280000862E06E04210843E0660420284000281C
:103290000AD0F807C00F002806D004202168086271
:1032A000E06E02210843E0660820284000280ED086
:1032B00020203040002803D1F807C00F002806D096
:1032C000082021680862E06E08210843E066E06E8D
:1032D000002841D020202840002806D0202030405F
:1032E000002802D0204602F008FBE06E08210840CA
:1032F000002805D12068806840210840002826D099
:10330000204602F0CFFA206880684021084000285B
:1033100019D020688068884321688860606E002822
:103320000DD02648616E8863606EFDF7EBFA0028C9
:1033300012D0606E816B00E00FE088470CE0204601
:10334000FFF75DFF08E02046FFF759FF04E0204645
:10335000FFF755FF0020E06669E7012000052840DF
:10336000002811D001208005384000280CD0012011
:103370000005216808622021692001556A20015555
:103380002046FFF73BFF52E780202840002807D067
:1033900080203040002803D0204602F0EFFC46E7B2
:1033A00040202840002807D040203040002803D08B
:1033B000204602F088FA3AE700BF38E79557000840
:1033C00010B50446002C01D1012010BDA0690028D1
:1033D00000D000E000BF6920005D002805D1002179
:1033E00068200155204600F02DF824216920015560
:1033F000206800684008400021680860606A002872
:1034000002D0204602F013F9204602F0BFFA01284C
:1034100000D1DAE7206840680921C90288432168A1
:103420004860206880682A21884321688860206875
:1034300000680121084321680860204602F070F905
:10344000C3E7000010B586B004466549206888428D
:103450003ED16448406B01218903084361494863B8
:1034600003204002019002200290002003900320DC
:1034700004900420059001A905200007FDF738FD00
:1034800059485A4908600320486010215748816014
:103490000021C16080210161002141618161C16120
:1034A0000162FDF717FC002804D0FF21AF3150A0C6
:1034B00002F0EEFC00BF4D482066846200BF00228F
:1034C00011461B20FEF7B4F91B20FEF7A5F984E096
:1034D0004E49206888425ED14248806B01214904F0
:1034E0000843404988637020019002200290002028
:1034F0000390032004900020059001A94448FDF7A3
:10350000F7FC39483C3043490860042048600021FA
:1035100040488160C1608021016100214161816179
:10352000C161032109030162FDF7D4FB002804D027
:10353000FF21DC312EA002F0ABFC00BF35486066F5
:10354000846200BF2848283033490860042048605E
:103550001021314881600021C1608021016100217A
:1035600041618161C1610162FDF7B4FB002804D0B3
:10357000FF21ED311EA002F08BFC00BF2648206623
:10358000846200BF002211461C20FEF751F91C2066
:10359000FEF742F921E02149206888421DD11148F7
:1035A000806B0121C90408430E498863032000028F
:1035B0000190022002900020039003200490062036
:1035C000059001A91648FDF793FC002211460E2034
:1035D000FEF72EF90E20FEF71FF906B010BD000011
:1035E00000380140001002401C0002408806002004
:1035F0002E2E2F5372632F73746D33326C307878A4
:103600005F68616C5F6D73702E6300000044004062
:10361000000C0050C806002008070020004C0040A5
:103620000010005070B504460D4616466A20005D35
:10363000202854D1002D01D0002E01D1012070BDD1
:1036400001210903A068884208D12069002805D11A
:10365000E807C00F002801D00120F0E700BF682074
:10366000005D012801D10220E9E701216820015510
:1036700000BF6565582006530020E06622216A20BD
:1036800001551848616EC8621748616E0863174893
:10369000616E48630020616E886323681946243197
:1036A0003346626D606EFDF7DDFB00BF00216820D0
:1036B000015500BF20680068FF21013108432168DF
:1036C00008602068806801210843216888602068BC
:1036D000806840210843216888600020AFE702200D
:1036E000ADE70000035800084F580008AD57000828
:1036F00010B503466A20C05C20286AD1002901D099
:10370000002A01D1012010BD012424039868A042A1
:1037100008D11869002805D1C807C00F002801D0BA
:103720000120F0E700BF6820C05C012801D1022021
:10373000E9E701246820C45400BF59655820C252EB
:103740005A20C25200BF24039868A0420AD11869C7
:10375000002803D1204C5C20C45220E0FF245C20D0
:10376000C4521CE0986800280AD11869002803D1C7
:10377000FF245C20C45212E07F245C20C4520EE07F
:10378000012424079868A04209D11869002803D1B0
:103790007F245C20C45202E03F245C20C45200BF5E
:1037A0000020D86622246A20C45400BF0024682068
:1037B000C45400BF18688068012420431C68A060BE
:1037C00018680068FF24213420431C682060002012
:1037D00099E7022097E70000FF01000010B50446BA
:1037E0002A492068884202D1012029494880294974
:1037F0002068884241D10B20274908802748007D56
:10380000012829D10C200880022124480175244870
:1038100080782449088008460088852801DB082034
:1038200008801F480078242803D11D4840782428A8
:1038300002D003F0D3F810BD0D20174908801948B5
:103840000088C01E82B21649C91C1748FFF7EAFE5D
:103850000E201149088010E01048007D022806D192
:103860000F200D49088003210C48017505E0102048
:10387000094908800521094801750C4920688842DA
:1038800002D101200249088100BFD4E7003801407D
:103890007207002000440040580000204803002028
:1038A0001001002064030020A8050020004C004007
:1038B0007047FEB504460D4616461F46002001908F
:1038C0006920005D20286AD1002D01D0002E01D191
:1038D0000120FEBD01210903A068884208D12069AA
:1038E000002805D1E807C00F002801D00120F0E72B
:1038F00000BF6820005D012801D10220E9E7012115
:103900006820015500BF0020E06621216920015593
:10391000FDF7FAFB0190502006535220065325E094
:103920005220005B401E81B25220015300970022BA
:1039300080212046019B02F05AFA002801D0032082
:10394000C7E701210903A06888420BD1206900283C
:1039500008D10295029D2888C005C00D21688862A3
:10396000AD1C03E028786D1C216888625220005B42
:103970000028D5D10097002240212046019B02F06B
:1039800036FA002801D00320A3E720216920015541
:1039900000BF00216820015500BF002099E70220E8
:1039A00097E7000070B504460E4615466920005D95
:1039B00020284CD1002E01D0002D01D1012070BD56
:1039C00001210903A068884208D12069002805D197
:1039D000F007C00F002801D00120F0E700BF6820E9
:1039E000005D012801D10220E9E70121682001558D
:1039F00000BFE66450200553522005530020E066C6
:103A00002121692001551348216EC8621248216E98
:103A100008631248216E48630020216E8863236882
:103A20001A4628322B46E16C206EFDF71BFA402027
:103A30002168086200BF00216820015500BF20688E
:103A4000806880210843216888600020B7E7022051
:103A5000B5E700005D58000897580008AD5700080A
:103A60000C4A0168914202D101210B4A51800B4A54
:103A70000168914205D10121074A91800A21084A33
:103A80001180084A0168914202D10121024A118144
:103A900070470000003801406807002000440040E3
:103AA00058000020004C0040704700001BE0002040
:103AB0000D49486000220D48FFF7EAFA00210B4843
:103AC000FFF78CFB00200849486004220748FFF7F5
:103AD000DFFA04210548FFF781FB00231A46194647
:103AE000502003F091FCE2E7580700200005002079
:103AF00010B50848006880690721090208400028BD
:103B000003D00448FDF778FB02E00248FDF7B4FB60
:103B100010BD00001004002010B50848006880693E
:103B2000072109020840002803D00448FDF764FB80
:103B300002E00248FDF7A0FB10BD00005C0400207D
:103B400070B50546AC6A206840680121C903084386
:103B5000216848600020A16B8863E16B8863412085
:103B6000005D602806D12021412001552046FDF747
:103B700041FB02E02046FDF78EFB70BD10B5034609
:103B80000A460021D007C00F002809D04220014377
:103B90004120C05C28242040282801D0B0200143C7
:103BA00002201040022809D1442001434120C05C7A
:103BB00028242040282801D0B020014304201040B0
:103BC000042801D1B820014311201040112801D14F
:103BD0009020014312201040122801D120200143DF
:103BE00012201040122801D14020014318680068BB
:103BF00088431C682060002010BD000010B50346FB
:103C00000022204C586BA04203D01F4C586BA0429E
:103C100018D104200840042801D1B8200243112003
:103C20000840112801D19020024312200840122898
:103C300001D1202002431220084012281AD140202E
:103C4000024317E004200840042801D1B8200243B1
:103C5000C807C00F002801D0F2200243022008400C
:103C6000022801D1F420024312200840122801D179
:103C7000202002431868006810431C682060002060
:103C800010BD0000A5420008F145000801688969DF
:103C9000022211404908002902D0002102689162E5
:103CA00001688969C907C90F0122514051400029A3
:103CB00004D1016889691143026891617047F8B5C0
:103CC0000446002700250026002000904120005DCA
:103CD00028210840282854D120688069012109043E
:103CE0000840070C206880697F2149040840050CC2
:103CF000206880688605B60D2068C068FE210840EF
:103D00000090E06802282DD106202840F1110622FB
:103D10001140884216D13546A06C401CA064A06CAE
:103D2000022836D10020A06408202168C86100BFA5
:103D300000214020015500BF2A4639462046FDF7A4
:103D40005AFA26E0009D04212046FFF717FF00BF26
:103D500000214020015500BF2A4639462046FDF784
:103D60004AFA16E004212046FFF708FF00BF0021B1
:103D70004020015500BF2A4639462046FDF73BFA50
:103D800007E008202168C86100BF002140200155DC
:103D900000BFF8BD70B504460D4600214220015514
:103DA0003F48E06200206085606C284360644120E9
:103DB000005D282807D04120005D292803D041203C
:103DC000005D2A280BD103212046FFF7D7FE2821CA
:103DD0004120015500202063324860630DE0072137
:103DE0002046FFF7CBFE4120005D602802D0202155
:103DF0004120015500202063606320680068012194
:103E000089030840884215D12068006888432168EA
:103E100008602548A16B886300BF00214020015540
:103E200000BFA06BFCF76EFD002838D0A06B816B43
:103E3000884734E0206800680121C90308408842AF
:103E400015D1206800688843216808601648E16B36
:103E5000886300BF00214020015500BFE06BFCF7E4
:103E600051FD00281BD0E06B816B884717E0412093
:103E7000005D60280BD120214120015500BF0021A9
:103E80004020015500BF2046FDF7B4F907E000BF10
:103E900000214020015500BF2046FDF7FCF970BD10
:103EA0000000FFFF91460008413B000870B5044642
:103EB0000D461A48E0620020206320214120015570
:103EC0000021422001550020606304202840002882
:103ED00013D02068406AC1B2626A501C60621170DF
:103EE000208D002809D0208D401E2085608D401E29
:103EF0006085606C04210843606407212046FFF759
:103F00003DFE10202168C86100BF002140200155FE
:103F100000BF2046FDF72AFA70BD00000000FFFF39
:103F200070B504460D4620202168C86120684068AD
:103F300034490840216848600020206360633248AB
:103F4000E06210202840002806D010202168C861B7
:103F5000606C0421084360642046FFF797FE03214C
:103F60002046FFF70BFE606C002803D14120005D66
:103F7000602804D1616C2046FFF70CFF40E041202F
:103F8000005D21281CD12021412001554220005DE7
:103F900040280AD100214220015500BF4020015590
:103FA00000BF2046FDF716FB2AE000214220015504
:103FB00000BF4020015500BF2046FDF7E5F91FE096
:103FC0004120005D22281BD12021412001554220A3
:103FD000005D40280AD100214220015500BF402049
:103FE000015500BF2046FDF7E9FA09E00021422013
:103FF000015500BF4020015500BF2046FDF7B8F92C
:1040000070BD000000E800FE0000FFFF10B5044690
:104010000021422001554120005D212813D120219B
:1040200041200155112020630020606301212046BA
:10403000FFF7A4FD00BF00214020015500BF20462E
:10404000FDF7A2F912E02021412001551220206342
:104050000020606302212046FFF790FD00BF002191
:104060004020015500BF2046FDF782F910BD000039
:1040700070B504460D4620202168C86108202168DB
:10408000C86107212046FFF779FD206840680121BB
:10409000C9030843216848602068406841490840D6
:1040A000216848602046FFF7F1FD20680068012183
:1040B00089030840884205D020680068490008400C
:1040C00088420BD14120005D212803D1A06B0068FC
:1040D000406802E0E06B006840686085608D002801
:1040E00003D0606C04210843606404202840002849
:1040F00013D02068406AC1B2626A501C60621170BD
:10410000208D002809D0208D401E2085608D401E06
:104110006085606C042108436064002020630021F6
:104120004220015500206063606C00280CD0616C57
:104130002046FFF72FFE4120005D282831D1294677
:104140002046FFF7B3FE2CE0E06A174988420DD005
:104150000846E06220214120015500BF0021402097
:10416000015500BF2046FDF701F91AE04120005D2E
:1041700022280BD120214120015500BF00214020E1
:10418000015500BF2046FDF7F9FA0AE02021412041
:10419000015500BF00214020015500BF2046FDF71A
:1041A000EEFA70BD00E800FE0000FFFF10B5044607
:1041B0000021422001554120005D292811D12821EC
:1041C000412001552120206301212046FFF7D6FC24
:1041D00000BF00214020015500BF2046FDF7CFFA67
:1041E00014E04120005D2A2810D1282141200155EA
:1041F0002220206302212046FFF7C0FC00BF0021DF
:104200004020015500BF2046FDF7B8FA10BD000060
:1042100070B504460D461646206880691021084096
:10422000000900283AD015E0681C002812D0002DA3
:1042300004D0FCF769FF801BA8420BD92021412044
:10424000015500214220015500BF4020015500BF0B
:10425000032070BD206880692021084040090028A3
:10426000E2D010202168C86120202168C861204662
:10427000FFF70CFD20684068094908402168486044
:104280000420606420214120015500214220015575
:1042900000BF4020015500BF0120DAE70020D8E729
:1042A00000E800FEFEB504460D4616460027002035
:1042B000019000BF4020005D012801D10220FEBD19
:1042C00001214020015500BF10202840002812D0B5
:1042D0001020304000280ED010202168C861606C8A
:1042E00004210843606412212046FFF787FC204622
:1042F000FFF7CCFC54E080202840002844D0402028
:104300003040002840D02068006840218843216860
:104310000860608D002832D0206840688705BF0D96
:10432000608DFF2805D9FF2020850120000601901F
:1043300004E0608D2085012040060190002000905F
:10434000208DC2B239462046019B00F051FA608DA3
:10435000218D401A60854120005D222807D1206808
:1043600000680121C90308432168086018E020683B
:1043700000680121890308432168086010E040219A
:104380002046FFF707FD0BE020202840002807D03B
:1043900020203040002803D029462046FFF7C0FDEA
:1043A00000BF00214020015500BF002087E700002A
:1043B000F8B504460D461646002700BF4020005DB4
:1043C000012801D10220F8BD01214020015500BF84
:1043D0001020284000280ED01020304000280AD09D
:1043E00010202168C861606C042108436064204685
:1043F000FFF74CFC9DE004202840002811D0042049
:10440000304000280DD02068406AC1B2626A501C5A
:1044100060621170208D401E2085608D401E608579
:1044200087E002202840002810D0022030400028D9
:104430000CD0616A481C6062087821688862208D0F
:10444000401E2085608D401E608572E080202840DF
:10445000002848D040203040002844D0208D00283B
:1044600031D1608D00282ED0206840688705BF0DAF
:10447000608DFF280CD9FF20208500200090208D22
:10448000C2B201231B063946204600F0B1F950E0C4
:10449000608D2085E06A3049884209D00020009074
:1044A000E36A208DC2B23946204600F0A1F940E00F
:1044B00000200090208DC2B201235B0639462046C1
:1044C00000F096F935E0206840680121490608406F
:1044D000884203D02046FFF799FD2AE0402120467C
:1044E000FFF758FC25E040202840002821D040203C
:1044F000304000281DD0608D002816D1206840680B
:10450000012149060840884213D0E06A12498842D6
:1045100007D1206840680121890308432168486069
:1045200007E02046FFF772FD03E040212046FFF739
:1045300031FC20202840002807D0202030400028CF
:1045400003D029462046FFF7EBFC00BF00214020A6
:10455000015500BF002036E70000FFFFFFB581B026
:10456000044615461E460A9F2048F2B200230090DA
:104570002046029900F03CF9394620460B9A00F09B
:10458000A9F9002807D0606C042802D1012005B0E9
:10459000F0BD0320FBE7012E03D1E8B22168886259
:1045A00016E0FF2000022840001221688862394688
:1045B00020460B9A00F08EF9002806D0606C042883
:1045C00001D10120E3E70320E1E7E8B22168886236
:1045D0000B983B46002240210090204600F024F931
:1045E000002801D00320D2E70020D0E7002000807F
:1045F00070B504460D46164600BF4020005D0128F8
:1046000001D1022070BD01214020015500BF1020C2
:10461000284000281CD010203040002818D041200D
:10462000005D212803D1A06B0068406802E0E06BC8
:1046300000684068002803D110202168C8611FE08D
:1046400010202168C861606C04210843606417E091
:1046500008202840002807D008203040002803D038
:1046600008202168C8610BE020202840002807D0DE
:1046700020203040002803D029462046FFF7F8FCD0
:1046800000BF00214020015500BF0020BAE7000014
:1046900070B504460D46164600BF4020005D012857
:1046A00001D1022070BD01214020015500BF102022
:1046B0002840002834D010203040002830D0608DB1
:1046C000002825D1E06A4906884202D0E06A884283
:1046D00008D14120005D282804D129462046FFF753
:1046E000E5FB70E0E06A414988420DD04120005D61
:1046F000292809D110202168C8612046FFF7C6FA91
:104700002046FFF753FD5EE010202168C8615AE0A3
:1047100010202168C861606C04210843606452E085
:104720000420284000281ED00420304000281AD041
:10473000608D00280CD02068406AC1B2626A501CAB
:1047400060621170208D401E2085608D401E608546
:10475000608D002837D1E06A2449884233D0204652
:10476000FFF724FD2FE008202840002808D008206B
:104770003040002804D029462046FFF7A0FA22E066
:104780000220284000281ED00220304000281AD0E5
:10479000608D00280CD0616A481C6062087821682E
:1047A0008862608D401E6085208D401E20850AE055
:1047B000E06A01210906884202D0E06A002802D19D
:1047C0002046FFF7F3FC20202840002807D02020B7
:1047D0003040002803D029462046FFF749FC00BF9F
:1047E00000214020015500BF00205BE70000FFFFD3
:1047F000F0B504686568059C640D0126B602344076
:10480000084E26432C46B4438D05AD0D1604FF27F4
:104810003F043E4035431D43059E35432C43056808
:104820006C60F0BDFF63FF03F8B504460E46174603
:104830001D4616E0681C002813D0002D05D0FCF79B
:1048400063FC0699401AA8420BD92021412001554A
:1048500000214220015500BF4020015500BF032028
:10486000F8BD206880693040B04201D1012000E0ED
:104870000020B842DED00020F2E770B504460D46B5
:1048800016461EE0324629462046FFF7C1FC0028A6
:1048900001D0012070BD002D04D0FCF735FC801B39
:1048A000A8420ED9606C2021084360644120015564
:1048B00000214220015500BF4020015500BF0320C8
:1048C000E8E7206880692021084040090028D9D005
:1048D0000020DFE770B504460D46164621E032465B
:1048E00029462046FFF794FC002801D0012070BD26
:1048F000681C002815D0002D04D0FCF705FC801B97
:10490000A8420ED9606C2021084360644120015503
:1049100000214220015500BF4020015500BF032067
:10492000E5E7206880690221084040080028D6D0C9
:104930000020DCE71CB54D484D49086001214C487A
:1049400001640C214164802181640021C164012043
:10495000800747494860002145488160C1630121C3
:1049600001610021C16001624162C162FF21C23167
:104970008162002101630421416100214163816161
:104980008163C161FBF7F2FD002804D0CB218900CF
:1049900038A001F07DFA01200090000301906946E3
:1049A0003348FBF731FD002803D0364931A001F030
:1049B0006FFA3548009069462D48FBF725FD002821
:1049C00004D0304908312BA001F062FA2F48009042
:1049D00069462748FBF718FD002804D02949103103
:1049E00024A001F055FA2A48009069462048FBF7B8
:1049F0000BFD002804D0234918311EA001F048FA0D
:104A00002448009069461A48FBF7FEFC002804D0B1
:104A10001C49203117A001F03BFA1F48009069465D
:104A20001348FBF7F1FC002804D01649283111A0E7
:104A300001F02EFA1948009069460D48FBF7E4FC96
:104A4000002804D00F4930310AA001F021FA14489F
:104A5000009069460648FBF7D7FC002804D00949B6
:104A6000383104A001F014FA1CBD000000240140FC
:104A7000700300202E2E2F5372632F6D61696E2EEE
:104A80006300000035030000020000040400000879
:104A90000800000C10000010200000144000001856
:104AA0000000024408B500BF1248006B0121084312
:104AB000104908630846006BC007C00F009000BF94
:104AC00000BF002211460920FCF7B2FE0920FCF7C6
:104AD000A3FE002211460A20FCF7AAFE0A20FCF7DA
:104AE0009BFE002211460B20FCF7A2FE0B20FCF7D8
:104AF00093FE08BD0010024000B587B000BF6C48AF
:104B0000C06A102108436A49C8620846C06A102179
:104B10000840019000BF00BF00BF6548C06A802107
:104B200008436349C8620846C06A80210840019072
:104B300000BF00BF00BF5E48C06A012108435C4956
:104B4000C8620846C06AC007C00F019000BF00BF1E
:104B500000BF0846C06A022108435549C86208469A
:104B6000C06A02210840019000BF00BF00BF50484A
:104B7000C06A082108434E49C8620846C06A082135
:104B80000840019000BF00BF00BF4948C06A04212F
:104B900008434749C8620846C06A0421084001909A
:104BA00000BF00BF01224348FCF7A7FA0022712191
:104BB00089014048FCF7A1FA0022012149023E4840
:104BC000FCF79BFA00220121C9023C48FCF795FA48
:104BD00000220121C90305200007FCF78EFA0022FC
:104BE00038213748FCF789FA3648029001200390B3
:104BF00000200490059002A92E48FCF779F92020A6
:104C0000029000200390049002A92A48FCF770F952
:104C100001204002029001200390002004900590A2
:104C200002A92548FCF764F9072000030290002040
:104C30000390049002A92248FCF75AF90D20800243
:104C4000029000200390049002A91C48FCF750F940
:104C50000120C002029001200390002004900590E2
:104C600002A91648FCF744F9FF20C1300290002049
:104C70000390049002A91448FCF73AF90120C003FC
:104C800002900120039000200490059002A90520C5
:104C90000007FCF72DF93820029001200390002036
:104CA0000490059002A90648FCF722F907B000BD60
:104CB0000010024000100050001C0050000C00507A
:104CC00000040050441C00000008005010B51748B4
:104CD0001749086017484860002115488160012184
:104CE000C1600021016141618161C1610162FCF724
:104CF000D3FA002803D0104910A001F0C9F8002110
:104D00000B48FCF707FA002804D07121C9000BA05A
:104D100001F0BEF800210648FCF733FA002804D061
:104D200005490E3105A001F0B3F810BD0054004054
:104D300010040020A8292020810300002E2E2F53CC
:104D400072632F6D61696E2E6300000010B5174805
:104D50001749086017484860002115488160012103
:104D6000C1600021016141618161C1610162FCF7A3
:104D700093FA002803D0104910A001F089F800210F
:104D80000B48FCF7C7F9002804D00B49C91D0BA03C
:104D900001F07EF800210648FCF7F3F9002804D062
:104DA00005490E3105A001F073F810BD0058004010
:104DB0005C040020BB7C7000A30300002E2E2F5348
:104DC00072632F6D61696E2E6300000010B510488C
:104DD00010490860FF200530486000210D488160BF
:104DE000C160016141610121490281612021C161EC
:104DF00000210162416281620721C162FDF792FDDB
:104E0000002803D0044905A001F042F810BD0000BD
:104E100000300140A8040020C90300002E2E2F53AB
:104E200072632F6D61696E2E6300000000B58BB058
:104E30003C483D490860FF202D30486010213A4829
:104E400081603A49C16000210161FEF72DF8002818
:104E500003D0374937A001F01BF801200003079069
:104E600007A93148FEF74CF8002804D03049891DC5
:104E700030A001F00DF82C48FEF793F9002804D07B
:104E80007D21C9002BA001F003F8002005900690B9
:104E900005A92548FDF7C0FF002804D02449123198
:104EA00024A000F0F5FF6020019000200290022075
:104EB000039000200490002201A91B48FEF7E8F8A7
:104EC000002804D07F21C9001AA000F0E1FF0421CE
:104ED0001548FDF7D2FF002804D01549203115A050
:104EE00000F0D6FF042201A90F48FEF7D1F80028F0
:104EF00004D00F4925310FA000F0CAFF0020039015
:104F00000C2201A90848FEF7C3F8002804D081212B
:104F1000C90008A000F0BCFF0348FEF791F80BB0F1
:104F200000BD000000040040000500201027000024
:104F3000DD0300002E2E2F5372632F6D61696E2EDC
:104F40006300000010B50F480F490860E1204002DF
:104F5000486000210C488160C16001610C21416101
:104F600000218161C1610162002007494862084651
:104F7000FEF726FA002803D0044905A000F088FFB8
:104F800010BD000000380140380500201F0400005B
:104F90002E2E2F5372632F6D61696E2E63000000F9
:104FA00010B5104810490860E12040024860002117
:104FB0000D488160C16001610C2141610021816166
:104FC000C161016200200849486200231A4619465F
:104FD0000548FDF757FC002803D0044904A000F061
:104FE00057FF10BD00440040A80500203404000015
:104FF0002E2E2F5372632F6D61696E2E6300000099
:1050000010B50F480F490860E120400248600021B8
:105010000C488160C16001610C2141610021816106
:10502000C16101620020074948620846FEF7C8F9DD
:10503000002803D0044905A000F02AFF10BD00009D
:10504000004C004018060020490400002E2E2F536B
:1050500072632F6D61696E2E63000000704700005F
:1050600010B5002819DA1A4A03071B0F083B9B08E2
:105070009B00D2588307DC0EFF23A3409A438B0783
:105080001B0E8407E40EA3401A43114B0407240FA0
:10509000083CA408A4001A5118E00E4A03231B027E
:1050A000D21883089B00D2588307DC0EFF23A3404D
:1050B0009A438B071B0E8407E40EA3401A43054B4B
:1050C000032424021B198408A4001A5110BD0000F7
:1050D0001CED00E000E100E07047000010B5014663
:1050E000002300222048C068F0242040002829D155
:1050F0001D48806B012424072040002806D01B484F
:1051000000680324E4022040034613E01648806B45
:10511000012424072043144CA0631448006803248E
:10512000E402204003461048806B01242407A0437A
:105130000D4CA0630320C002834203D1C000814212
:1051400000D101220A480068400840001043084C82
:10515000206020460068C007C00F904201D00120A7
:1051600010BD0020FCE7000000100240007000406D
:1051700000200240FFB581B004460E461D460027C0
:10518000FBF7C2FF0746039800283FD133E0681CB5
:10519000002830D0002D04D0FBF7B6FFC01BA8427A
:1051A00029D920684068E021884321684860206848
:1051B0000068402188432168086001214903A06AF2
:1051C00088420DD100BF20680068884321680860CC
:1051D000206800680121490308432168086000BF76
:1051E00001215120015500BF00215020015500BF71
:1051F000032005B0F0BD206880683040B04201D186
:10520000012000E000200028C1D03DE032E0681C11
:1052100000282FD0002D04D0FBF776FFC01BA8423A
:1052200028D920684068E0218843216848602068C8
:105230000068402188432168086001214903A06A71
:1052400088420DD100BF206800688843216808604B
:10525000206800680121490308432168086000BFF5
:1052600001215120015500BF00215020015500BFF0
:105270000320BEE7206880683040B04201D10120A1
:1052800000E000200028C2D10020B2E7704710B52E
:10529000FCF776FAFDF7BCFD10BD000030B59DB0FF
:1052A0002B4800680321C90288430121C902401824
:1052B0002749086002200F900120129010201390BF
:1052C0000220199000211A9141041B9141051C9163
:1052D0000FA8FCF76DFF002803D01E491EA000F0A8
:1052E000D7FD0F200A9003200B9000200C900D900A
:1052F0000E9001210AA8FCF7C3FD002804D015492F
:105300000E3115A000F0C4FD0B200090002003908A
:10531000049006906846FCF75DFC002804D00D4917
:1053200018310DA000F0B4FDFCF7A6FE05467D2166
:10533000C900FAF7DDFE0446FDF74EFD0420FDF737
:105340004BFC00221146501EFCF772FA1DB030BD16
:1053500000700040E70200002E2E2F5372632F6D65
:1053600061696E2E6300000015480068FF2101315D
:105370000843134908600846C068124908401049AC
:10538000C86008460068104908400D490860084692
:105390008068400840008860084600680121890450
:1053A0008843074908600846C068FD21090488430E
:1053B0000349C86000200861C80304498860704739
:1053C000001002400C40FF88F6FFF6FE00ED00E002
:1053D00010B50022026801239B07984208D01A4B9F
:1053E000984205D0194B984202D0194B984201D1EE
:1053F000012300E00023002B05D070241346A343B3
:105400001A464B681A4301239B07984208D00E4B5B
:10541000984205D00D4B984202D00D4B984201D1D5
:10542000012300E00023002B06D0032424021346AE
:10543000A3431A46CB681A4302608B68C3620B68A9
:1054400083620123436110BD000400400008014055
:105450000014014030B5002301248C402346046A27
:105460009C430462046A15468D402C43046230BD9F
:1054700070B50C4600218168FF2636020D46B54303
:1054800029461D02154325432943816070BD10B58F
:105490000A460021816870240B46A343194607235E
:1054A00013431943816010BD70B50022002300240E
:1054B000056A6D086D000562036A4468826970269A
:1054C0001546B5432A46920892000D682A430226E3
:1054D0001D46B5432B468D682B43446082614D6861
:1054E0004563036270BD70B5002200230024056A85
:1054F0001026B5430562036A4468826907263603AD
:105500001546B5432A46032636021546B5432A46B4
:105510000D682D022A4320261D46B5432B468D6873
:105520002D012B43446082614D688563036270BD29
:1055300070B5002200230024056AFF260136B5431A
:105540000562036A4468C26970261546B5432A4657
:10555000920892000D682A43012676021D46B54343
:105560002B468D682D022B434460C2614D68C56394
:10557000036270BD70B5002200230024056A012675
:105580003603B5430562036A4468C26907263603D9
:105590001546B5432A46032636021546B5432A4624
:1055A0000D682D022A43012676031D46B5432B467E
:1055B0008D682D032B434460C2614D68056403620E
:1055C00070BD70B50B46144600210022026A056AC0
:1055D0006D086D0005628169F0260D46B5432946C8
:1055E000250129430A261546B5432A4615461D437B
:1055F0002A468161026270BD70B50B4614460021D7
:105600000022056A1026B54305628169026A0F26E9
:1056100036030D46B543294625032943A0261546E2
:10562000B5432A461D012A438161026270BD818C07
:10563000C907C90F002908D001684968012252042E
:105640009143826A1143026851600222416A11400B
:10565000002907D001684968D2039143C26A114307
:10566000026851600422416A1140002907D0016894
:10567000496812049143026B114302685160082289
:10568000416A1140002907D001684968120391431B
:10569000426B1143026851601022416A1140002997
:1056A00007D00168896812029143826B1143026836
:1056B00091602022416A1140002907D00168896861
:1056C00012029143C26B1143026891604022416A09
:1056D0001140002915D00168496892039143026C7A
:1056E00011430268516001221205016C914208D1F8
:1056F00001684968032252059143426C11430268D4
:1057000051608022416A1140002907D00168496830
:1057100012039143826C114302685160704700008C
:1057200038B5044600250020E066FBF7EDFC054691
:10573000206800680821084008280BD114482B462F
:10574000002289040090204600F051FB002801D07F
:10575000032038BD206800680421084004280BD1CC
:105760000B482B46002209050090204600F03FFB25
:10577000002801D00320ECE72021692001556A2090
:10578000015500BF00216820015500BF0020E0E75F
:10579000FFFFFF0170B50546AC6A00215A20015396
:1057A000522001532046FDF72AFD70BD70B5054615
:1057B000AC6A6920005D21280BD1206880688021B7
:1057C0000840002805D0002152200153204600F057
:1057D0008AF86A20005D22280BD120688068402169
:1057E0000840002805D000215A200153204600F02F
:1057F00059F8E06E10210843E0662046FDF7FFFCF3
:1058000070BD70B50546AC6A286800682021084064
:10581000002818D100215A20015320680068FF2178
:105820000131884321680860206880684008400092
:1058300021688860206880684021884321688860EA
:1058400020216A2001552046FDF7C8FF70BD70B5C4
:105850000446A56A2846FEF72BF870BD70B50546CC
:10586000AC6A286800682021084000280FD1002178
:105870005220015320688068802188432168886015
:1058800020680068402108432168086002E0204643
:10589000FEF7E6F870BD70B50446A56A2846FEF727
:1058A00003F970BD01680968FF2221329143026843
:1058B00011600168896849084900026891602022E6
:1058C0006A210A54704710B50446206800684021D8
:1058D0008843216808602021692001552046FEF791
:1058E000BFF8002010BD01680968C022914302681A
:1058F0001160202269210A547047F8B504465C20E3
:10590000075B6A20005D222837D12068406A85B293
:1059100001210903A06888420AD12069002807D123
:10592000666D284638403080606D801C606505E0FB
:10593000F8B22840626D511C616510705A20005BFE
:10594000401E81B25A200153002914D120680068FA
:10595000FF21213188432168086020688068400861
:1059600040002168886020216A2001552046FDF70B
:1059700035FF0020F8BD0020FCE720688069082181
:105980000843216888610220F4E70000F0B587B081
:105990000446002510260020059004900390EA4953
:1059A0002068884201D1012000E00020002800D0BA
:1059B00000E000BF2169A068084361690843E1690C
:1059C0000843054620680068E049084028432168EC
:1059D000086020684068032109038843E1680843A0
:1059E00021684860A569D8492068884201D1012012
:1059F00000E00020002801D1206A0543206880686B
:105A00000B210902884328432168886000BFD049E0
:105A10002068884217D1CF48C0688007800F0028CF
:105A200006D0012808D0022804D0032808D105E0B8
:105A3000012607E0022605E0042603E0082601E02F
:105A4000102600BF46E0C4492068884217D1C148EB
:105A5000C0680C210840002806D0042808D0082877
:105A600004D00C2808D105E0002607E0022605E056
:105A7000042603E0082601E0102600BF2AE0B7490B
:105A80002068884201D1002624E0B5492068884278
:105A900001D100261EE0AC49206888421AD1AD48E9
:105AA000C068032189020840002808D0012189022A
:105AB000401A08D0401A04D0401A08D105E0002648
:105AC00007E0022605E0042603E0082601E0102690
:105AD00000BF00BF00BF0220FBF7B4FE07469A4993
